:100000000C9434000C9446000C9446000C9446006A
:100010000C9446000C9446000C9446000C94460048
:100020000C9446000C9446000C9446000C94460038
:100030000C9446000C9446000C9446000C94460028
:100040000C944C000C9446000C9446000C94460012
:100050000C9446000C9446000C9446000C94460008
:100060000C9446000C94460011241FBECFEFD8E03C
:10007000DEBFCDBF21E0A0E0B1E001C01D92A23003
:10008000B207E1F70E9485000C9491000C940000E7
:100090001D9A08951D9808951F920F920FB60F9202
:1000A00011242F933F934F935F936F937F938F937D
:1000B0009F93AF93BF93EF93FF93809100018F5F66
:1000C000809300018E3150F0809101018823B9F0B6
:1000D0000E944A001092010110920001FF91EF91DD
:1000E000BF91AF919F918F917F916F915F914F9150
:1000F0003F912F910F900FBE0F901F9018950E9467
:10010000480081E080930101E7CF259A85B585609D
:1001100085BD16BC80916E00816080936E007894DE
:06012000FFCFF894FFCFB1
:00000001FF
